###############################################################################
#                                                                             #
# IAR C/C++ Compiler V7.51A/W32 for 8051                06/Jan/2013  14:27:33 #
# Copyright 2004-2009 IAR Systems AB.                                         #
#                                                                             #
#    Core               =  plain                                              #
#    Code model         =  banked                                             #
#    Data model         =  large                                              #
#    Calling convention =  xdata reentrant                                    #
#    Constant location  =  data_rom                                           #
#    Dptr setup         =  1,16                                               #
#    Source file        =  C:\Texas Instruments\ZStack-CC2530-2.3.0-1.4.0\Pro #
#                          jects\zstack\Samples\second_uart_App\Source\Enddev #
#                          ice.c                                              #
#    Command line       =  -f "C:\Texas Instruments\ZStack-CC2530-2.3.0-1.4.0 #
#                          \Projects\zstack\Samples\second_uart_App\CC2530DB\ #
#                          ..\..\..\Tools\CC2530DB\f8wEndev.cfg" (-DCPU32MHZ  #
#                          -DROOT=__near_func -DBLINK_LEDS) -f "C:\Texas      #
#                          Instruments\ZStack-CC2530-2.3.0-1.4.0\Projects\zst #
#                          ack\Samples\second_uart_App\CC2530DB\..\..\..\Tool #
#                          s\CC2530DB\f8wConfig.cfg" (-DSECURE=0              #
#                          -DZG_SECURE_DYNAMIC=0 -DREFLECTOR                  #
#                          -DDEFAULT_CHANLIST=0x00000800                      #
#                          -DZDAPP_CONFIG_PAN_ID=0x1234                       #
#                          -DNWK_START_DELAY=100 -DEXTENDED_JOINING_RANDOM_MA #
#                          SK=0x007F -DBEACON_REQUEST_DELAY=100               #
#                          -DBEACON_REQ_DELAY_MASK=0x00FF                     #
#                          -DROUTE_EXPIRY_TIME=30 -DAPSC_ACK_WAIT_DURATION_PO #
#                          LLED=3000 -DNWK_INDIRECT_MSG_TIMEOUT=7             #
#                          -DMAX_RREQ_ENTRIES=8 -DAPSC_MAX_FRAME_RETRIES=3    #
#                          -DNWK_MAX_DATA_RETRIES=2                           #
#                          -DMAX_POLL_FAILURE_RETRIES=2 -DMAX_BCAST=9         #
#                          -DAPS_MAX_GROUPS=16 -DMAX_RTG_ENTRIES=40           #
#                          -DNWK_MAX_BINDING_ENTRIES=4                        #
#                          -DMAX_BINDING_CLUSTER_IDS=4 "-DDEFAULT_KEY={0x01,  #
#                          0x03, 0x05, 0x07, 0x09, 0x0B, 0x0D, 0x0F, 0x00,    #
#                          0x02, 0x04, 0x06, 0x08, 0x0A, 0x0C, 0x0D}"         #
#                          -DMAC_MAX_FRAME_SIZE=116 "-DCONST=const __code"    #
#                          -DGENERIC=__generic -DRFD_RCVC_ALWAYS_ON=FALSE     #
#                          -DPOLL_RATE=1000 -DQUEUED_POLL_RATE=100            #
#                          -DRESPONSE_POLL_RATE=100) -DREJOIN_POLL_RATE=440   #
#                          "C:\Texas Instruments\ZStack-CC2530-2.3.0-1.4.0\Pr #
#                          ojects\zstack\Samples\second_uart_App\Source\Endde #
#                          vice.c" -D NWK_AUTO_POLL -D ZTOOL_P1 -D MT_TASK    #
#                          -D MT_SYS_FUNC -D MT_ZDO_FUNC -D                   #
#                          LCD_SUPPORTED=DEBUG -D xPOWER_SAVING -D            #
#                          HAL_UART=TRUE -lC "C:\Texas                        #
#                          Instruments\ZStack-CC2530-2.3.0-1.4.0\Projects\zst #
#                          ack\Samples\second_uart_App\CC2530DB\EndDeviceEB\L #
#                          ist\" -lA "C:\Texas Instruments\ZStack-CC2530-2.3. #
#                          0-1.4.0\Projects\zstack\Samples\second_uart_App\CC #
#                          2530DB\EndDeviceEB\List\" --diag_suppress          #
#                          Pe001,Pa010 -o "C:\Texas                           #
#                          Instruments\ZStack-CC2530-2.3.0-1.4.0\Projects\zst #
#                          ack\Samples\second_uart_App\CC2530DB\EndDeviceEB\O #
#                          bj\" -e --require_prototypes --debug --core=plain  #
#                          --dptr=16,1 --data_model=large                     #
#                          --code_model=banked --calling_convention=xdata_ree #
#                          ntrant --place_constants=data_rom                  #
#                          --nr_virtual_regs 16 -I "C:\Texas                  #
#                          Instruments\ZStack-CC2530-2.3.0-1.4.0\Projects\zst #
#                          ack\Samples\second_uart_App\CC2530DB\" -I          #
#                          "C:\Texas Instruments\ZStack-CC2530-2.3.0-1.4.0\Pr #
#                          ojects\zstack\Samples\second_uart_App\CC2530DB\..\ #
#                          SOURCE\" -I "C:\Texas Instruments\ZStack-CC2530-2. #
#                          3.0-1.4.0\Projects\zstack\Samples\second_uart_App\ #
#                          CC2530DB\..\..\..\ZMAIN\TI2530DB\" -I "C:\Texas    #
#                          Instruments\ZStack-CC2530-2.3.0-1.4.0\Projects\zst #
#                          ack\Samples\second_uart_App\CC2530DB\..\..\..\..\. #
#                          .\COMPONENTS\MT\" -I "C:\Texas                     #
#                          Instruments\ZStack-CC2530-2.3.0-1.4.0\Projects\zst #
#                          ack\Samples\second_uart_App\CC2530DB\..\..\..\..\. #
#                          .\COMPONENTS\HAL\INCLUDE\" -I "C:\Texas            #
#                          Instruments\ZStack-CC2530-2.3.0-1.4.0\Projects\zst #
#                          ack\Samples\second_uart_App\CC2530DB\..\..\..\..\. #
#                          .\COMPONENTS\HAL\TARGET\CC2530EB\" -I "C:\Texas    #
#                          Instruments\ZStack-CC2530-2.3.0-1.4.0\Projects\zst #
#                          ack\Samples\second_uart_App\CC2530DB\..\..\..\..\. #
#                          .\COMPONENTS\OSAL\MCU\CCSOC\" -I "C:\Texas         #
#                          Instruments\ZStack-CC2530-2.3.0-1.4.0\Projects\zst #
#                          ack\Samples\second_uart_App\CC2530DB\..\..\..\..\. #
#                          .\COMPONENTS\OSAL\INCLUDE\" -I "C:\Texas           #
#                          Instruments\ZStack-CC2530-2.3.0-1.4.0\Projects\zst #
#                          ack\Samples\second_uart_App\CC2530DB\..\..\..\..\. #
#                          .\COMPONENTS\STACK\AF\" -I "C:\Texas               #
#                          Instruments\ZStack-CC2530-2.3.0-1.4.0\Projects\zst #
#                          ack\Samples\second_uart_App\CC2530DB\..\..\..\..\. #
#                          .\COMPONENTS\STACK\NWK\" -I "C:\Texas              #
#                          Instruments\ZStack-CC2530-2.3.0-1.4.0\Projects\zst #
#                          ack\Samples\second_uart_App\CC2530DB\..\..\..\..\. #
#                          .\COMPONENTS\STACK\SEC\" -I "C:\Texas              #
#                          Instruments\ZStack-CC2530-2.3.0-1.4.0\Projects\zst #
#                          ack\Samples\second_uart_App\CC2530DB\..\..\..\..\. #
#                          .\COMPONENTS\STACK\SAPI\" -I "C:\Texas             #
#                          Instruments\ZStack-CC2530-2.3.0-1.4.0\Projects\zst #
#                          ack\Samples\second_uart_App\CC2530DB\..\..\..\..\. #
#                          .\COMPONENTS\STACK\SYS\" -I "C:\Texas              #
#                          Instruments\ZStack-CC2530-2.3.0-1.4.0\Projects\zst #
#                          ack\Samples\second_uart_App\CC2530DB\..\..\..\..\. #
#                          .\COMPONENTS\STACK\ZDO\" -I "C:\Texas              #
#                          Instruments\ZStack-CC2530-2.3.0-1.4.0\Projects\zst #
#                          ack\Samples\second_uart_App\CC2530DB\..\..\..\..\. #
#                          .\COMPONENTS\ZMAC\F8W\" -I "C:\Texas               #
#                          Instruments\ZStack-CC2530-2.3.0-1.4.0\Projects\zst #
#                          ack\Samples\second_uart_App\CC2530DB\..\..\..\..\. #
#                          .\COMPONENTS\ZMAC\" -I "C:\Texas                   #
#                          Instruments\ZStack-CC2530-2.3.0-1.4.0\Projects\zst #
#                          ack\Samples\second_uart_App\CC2530DB\..\..\..\..\. #
#                          .\COMPONENTS\SERVICES\SADDR\" -I "C:\Texas         #
#                          Instruments\ZStack-CC2530-2.3.0-1.4.0\Projects\zst #
#                          ack\Samples\second_uart_App\CC2530DB\..\..\..\..\. #
#                          .\COMPONENTS\SERVICES\SDATA\" -I "C:\Texas         #
#                          Instruments\ZStack-CC2530-2.3.0-1.4.0\Projects\zst #
#                          ack\Samples\second_uart_App\CC2530DB\..\..\..\..\. #
#                          .\COMPONENTS\MAC\INCLUDE\" -I "C:\Texas            #
#                          Instruments\ZStack-CC2530-2.3.0-1.4.0\Projects\zst #
#                          ack\Samples\second_uart_App\CC2530DB\..\..\..\..\. #
#                          .\COMPONENTS\MAC\HIGH_LEVEL\" -I "C:\Texas         #
#                          Instruments\ZStack-CC2530-2.3.0-1.4.0\Projects\zst #
#                          ack\Samples\second_uart_App\CC2530DB\..\..\..\..\. #
#                          .\COMPONENTS\MAC\LOW_LEVEL\srf04\" -I "C:\Texas    #
#                          Instruments\ZStack-CC2530-2.3.0-1.4.0\Projects\zst #
#                          ack\Samples\second_uart_App\CC2530DB\..\..\..\..\. #
#                          .\COMPONENTS\MAC\LOW_LEVEL\srf04\SINGLE_CHIP\" -I  #
#                          "C:\Program Files\IAR Systems\Embedded Workbench   #
#                          5.3\8051\INC\" -I "C:\Program Files\IAR            #
#                          Systems\Embedded Workbench 5.3\8051\INC\CLIB\"     #
#                          -Ohz                                               #
#    List file          =  C:\Texas Instruments\ZStack-CC2530-2.3.0-1.4.0\Pro #
#                          jects\zstack\Samples\second_uart_App\CC2530DB\EndD #
#                          eviceEB\List\Enddevice.lst                         #
#    Object file        =  C:\Texas Instruments\ZStack-CC2530-2.3.0-1.4.0\Pro #
#                          jects\zstack\Samples\second_uart_App\CC2530DB\EndD #
#                          eviceEB\Obj\Enddevice.r51                          #
#                                                                             #
#                                                                             #
###############################################################################

C:\Texas Instruments\ZStack-CC2530-2.3.0-1.4.0\Projects\zstack\Samples\second_uart_App\Source\Enddevice.c
      1          #include "OSAL.h"
      2          #include "AF.h"
      3          #include "ZDApp.h"
      4          #include "ZDObject.h"
      5          #include "ZDProfile.h"
      6          
      7          #include "Coordinator.h"
      8          #include "DebugTrace.h"
      9          
     10          #if !defined( WIN32 )
     11            #include "OnBoard.h"
     12          #endif
     13          
     14          /* HAL */
     15          #include "hal_lcd.h"
     16          #include "hal_led.h"
     17          #include "hal_key.h"
     18          #include "hal_uart.h"
     19          // This list should be filled with Application specific Cluster IDs.

   \                                 In  segment XDATA_ROM_C, align 1
     20          const cId_t GenericApp_ClusterList[GENERICAPP_MAX_CLUSTERS] =
   \                     GenericApp_ClusterList:
   \   000000   0100         DW 1
     21          {
     22            GENERICAPP_CLUSTERID
     23          };
     24          /*
     25           简单描述符的结构体  用于描述一个zigbee的设备节点；
     26          typedef struct
     27          {
     28            byte          EndPoint;
     29            uint16        AppProfId;
     30            uint16        AppDeviceId;
     31            byte          AppDevVer:4;
     32            byte          Reserved:4;             // AF_V1_SUPPORT uses for AppFlags:4.
     33            byte          AppNumInClusters;
     34            cId_t         *pAppInClusterList;
     35            byte          AppNumOutClusters;
     36            cId_t         *pAppOutClusterList;
     37          } SimpleDescriptionFormat_t;
     38          */

   \                                 In  segment XDATA_ROM_C, align 1
     39          const SimpleDescriptionFormat_t GenericApp_SimpleDesc =
   \                     GenericApp_SimpleDesc:
   \   000000   0A           DB 10
   \   000001   040F0100     DW 3844, 1
   \   000005   0001         DB 0, 1
   \   000007   ....         DW GenericApp_ClusterList
   \   000009   01           DB 1
   \   00000A   ....         DW GenericApp_ClusterList
     40          {
     41            GENERICAPP_ENDPOINT,              //  int Endpoint;            10
     42            GENERICAPP_PROFID,                //  uint16 AppProfId[2];     0x0F04
     43            GENERICAPP_DEVICEID,              //  uint16 AppDeviceId[2];   0x0001
     44            GENERICAPP_DEVICE_VERSION,        //  int   AppDevVer:4;       0
     45            GENERICAPP_FLAGS,                 //  int   AppFlags:4;        0
     46            GENERICAPP_MAX_CLUSTERS,          //  byte  AppNumInClusters;  1
     47            (cId_t *)GenericApp_ClusterList,  //  byte *pAppInClusterList; GenericApp_ClusterList[GENERICAPP_MAX_CLUSTERS]
     48            GENERICAPP_MAX_CLUSTERS,          //  byte  AppNumInClusters;  1
     49            (cId_t *)GenericApp_ClusterList   //  byte *pAppInClusterList; GenericApp_ClusterList[GENERICAPP_MAX_CLUSTERS]
     50          };

   \                                 In  segment XDATA_Z, align 1, keep-with-next
     51          endPointDesc_t GenericApp_epDesc;   //节点描述符
   \                     GenericApp_epDesc:
   \   000000                DS 6
   \   000006                REQUIRE __INIT_XDATA_Z

   \                                 In  segment XDATA_Z, align 1, keep-with-next
     52          byte GenericApp_TaskID;             //任务优先级
   \                     GenericApp_TaskID:
   \   000000                DS 1
   \   000001                REQUIRE __INIT_XDATA_Z

   \                                 In  segment XDATA_Z, align 1, keep-with-next
     53          byte GenericApp_TransID;            //数据发送序列号
   \                     GenericApp_TransID:
   \   000000                DS 1
   \   000001                REQUIRE __INIT_XDATA_Z

   \                                 In  segment XDATA_Z, align 1, keep-with-next
     54          devStates_t GenericApp_NwkState;
   \                     GenericApp_NwkState:
   \   000000                DS 1
   \   000001                REQUIRE __INIT_XDATA_Z
     55          void GenericApp_MessageMSGCB( afIncomingMSGPacket_t *pkt );
     56          void GenericApp_SendTheMessage(void);
     57          
     58          

   \                                 In  segment BANKED_CODE, align 1, keep-with-next
     59          void GenericApp_Init(byte task_id)
   \                     GenericApp_Init:
     60          {
   \   000000   C082         PUSH    DPL
   \   000002   C083         PUSH    DPH
   \   000004                ; Saved register size: 2
   \   000004                ; Auto size: 0
     61              
     62                GenericApp_TaskID  = task_id;
   \   000004   E9           MOV     A,R1
   \   000005   90....       MOV     DPTR,#GenericApp_TaskID
   \   000008   F0           MOVX    @DPTR,A
     63                GenericApp_NwkState = DEV_INIT;
   \   000009   7401         MOV     A,#0x1
   \   00000B   90....       MOV     DPTR,#GenericApp_NwkState
   \   00000E   F0           MOVX    @DPTR,A
     64                GenericApp_TransID = 0;
   \   00000F   E4           CLR     A
   \   000010   90....       MOV     DPTR,#GenericApp_TransID
   \   000013   F0           MOVX    @DPTR,A
     65                GenericApp_epDesc.endPoint = GENERICAPP_ENDPOINT;  //10
   \   000014   740A         MOV     A,#0xa
   \   000016   90....       MOV     DPTR,#GenericApp_epDesc
   \   000019   F0           MOVX    @DPTR,A
     66                GenericApp_epDesc.task_id = &GenericApp_TaskID;    
   \   00001A   90....       MOV     DPTR,#(GenericApp_epDesc + 1)
   \   00001D   74..         MOV     A,#(GenericApp_TaskID & 0xff)
   \   00001F   F0           MOVX    @DPTR,A
   \   000020   A3           INC     DPTR
   \   000021   74..         MOV     A,#((GenericApp_TaskID >> 8) & 0xff)
   \   000023   F0           MOVX    @DPTR,A
     67                GenericApp_epDesc.simpleDesc =(SimpleDescriptionFormat_t *)&GenericApp_SimpleDesc;
   \   000024   90....       MOV     DPTR,#(GenericApp_epDesc + 3)
   \   000027   74..         MOV     A,#(GenericApp_SimpleDesc & 0xff)
   \   000029   F0           MOVX    @DPTR,A
   \   00002A   A3           INC     DPTR
   \   00002B   74..         MOV     A,#((GenericApp_SimpleDesc >> 8) & 0xff)
   \   00002D   F0           MOVX    @DPTR,A
     68                GenericApp_epDesc.latencyReq = noLatencyReqs;
   \   00002E   E4           CLR     A
   \   00002F   90....       MOV     DPTR,#(GenericApp_epDesc + 5)
   \   000032   F0           MOVX    @DPTR,A
     69                afRegister(&GenericApp_epDesc); 
   \   000033                ; Setup parameters for call to function afRegister
   \   000033   7A..         MOV     R2,#(GenericApp_epDesc & 0xff)
   \   000035   7B..         MOV     R3,#((GenericApp_epDesc >> 8) & 0xff)
   \   000037   12....       LCALL   ??afRegister?relay
     70                osal_start_timerEx(GenericApp_TaskID, GENERICAPP_SEND_MSG_EVT, 5000);
   \   00003A                ; Setup parameters for call to function osal_start_timerEx
   \   00003A   7C88         MOV     R4,#-0x78
   \   00003C   7D13         MOV     R5,#0x13
   \   00003E   7A01         MOV     R2,#0x1
   \   000040   7B00         MOV     R3,#0x0
   \   000042   90....       MOV     DPTR,#GenericApp_TaskID
   \   000045   E0           MOVX    A,@DPTR
   \   000046   F9           MOV     R1,A
   \   000047   12....       LCALL   ??osal_start_timerEx?relay
     71          }
   \   00004A   D083         POP     DPH
   \   00004C   D082         POP     DPL
   \   00004E   02....       LJMP    ?BRET

   \                                 In  segment BANKED_CODE, align 1, keep-with-next
     72          UINT16 GenericApp_ProcessEvent( byte task_id, UINT16 events )
   \                     GenericApp_ProcessEvent:
     73          {
   \   000000   74F4         MOV     A,#-0xc
   \   000002   12....       LCALL   ?BANKED_ENTER_XDATA
   \   000005                ; Saved register size: 12
   \   000005                ; Auto size: 0
   \   000005   EA           MOV     A,R2
   \   000006   FE           MOV     R6,A
   \   000007   EB           MOV     A,R3
   \   000008   FF           MOV     R7,A
     74                afIncomingMSGPacket_t *MSGpkt;
     75                if ( events & SYS_EVENT_MSG )
   \   000009   7480         MOV     A,#-0x80
   \   00000B   5F           ANL     A,R7
   \   00000C   F9           MOV     R1,A
   \   00000D   E4           CLR     A
   \   00000E   7001         JNZ     ??GenericApp_ProcessEvent_0
   \   000010   E9           MOV     A,R1
   \                     ??GenericApp_ProcessEvent_0:
   \   000011   6039         JZ      ??GenericApp_ProcessEvent_1
     76                {
     77                    MSGpkt = (afIncomingMSGPacket_t *)osal_msg_receive( GenericApp_TaskID );
   \   000013                ; Setup parameters for call to function osal_msg_receive
   \   000013   8023         SJMP    ??GenericApp_ProcessEvent_2
     78                    while ( MSGpkt )
     79                    {
     80                      switch ( MSGpkt->hdr.event )
   \                     ??GenericApp_ProcessEvent_3:
   \   000015   85..82       MOV     DPL,?V0 + 0
   \   000018   85..83       MOV     DPH,?V0 + 1
   \   00001B   E0           MOVX    A,@DPTR
   \   00001C   64D1         XRL     A,#0xd1
   \   00001E   7011         JNZ     ??GenericApp_ProcessEvent_4
     81                      {
     82                        case ZDO_STATE_CHANGE:
     83                          GenericApp_NwkState = (devStates_t)(MSGpkt->hdr.status);
   \   000020   A3           INC     DPTR
   \   000021   E0           MOVX    A,@DPTR
   \   000022   90....       MOV     DPTR,#GenericApp_NwkState
   \   000025   F0           MOVX    @DPTR,A
     84                          if((GenericApp_NwkState == DEV_END_DEVICE))
   \   000026   6406         XRL     A,#0x6
   \   000028   7007         JNZ     ??GenericApp_ProcessEvent_4
     85                          {
     86                            HalLedSet (HAL_LED_1, HAL_LED_MODE_ON);
   \   00002A                ; Setup parameters for call to function HalLedSet
   \   00002A   7A01         MOV     R2,#0x1
   \   00002C   7901         MOV     R1,#0x1
   \   00002E   12....       LCALL   ??HalLedSet?relay
     87                          }
     88                         break;
     89                        default:
     90                        break;
     91                      }
     92                    osal_msg_deallocate( (uint8 *)MSGpkt );
   \                     ??GenericApp_ProcessEvent_4:
   \   000031                ; Setup parameters for call to function osal_msg_deallocate
   \   000031   AA..         MOV     R2,?V0 + 0
   \   000033   AB..         MOV     R3,?V0 + 1
   \   000035   12....       LCALL   ??osal_msg_deallocate?relay
     93                    // Next
     94                    MSGpkt = (afIncomingMSGPacket_t *)osal_msg_receive( GenericApp_TaskID );
   \   000038                ; Setup parameters for call to function osal_msg_receive
   \                     ??GenericApp_ProcessEvent_2:
   \   000038   90....       MOV     DPTR,#GenericApp_TaskID
   \   00003B   E0           MOVX    A,@DPTR
   \   00003C   F9           MOV     R1,A
   \   00003D   12....       LCALL   ??osal_msg_receive?relay
   \   000040   8A..         MOV     ?V0 + 0,R2
   \   000042   8B..         MOV     ?V0 + 1,R3
     95                    }
   \   000044   E5..         MOV     A,?V0 + 0
   \   000046   7002         JNZ     ??GenericApp_ProcessEvent_5
   \   000048   E5..         MOV     A,?V0 + 1
   \                     ??GenericApp_ProcessEvent_5:
   \   00004A   70C9         JNZ     ??GenericApp_ProcessEvent_3
     96                }
     97              if ( events & GENERICAPP_SEND_MSG_EVT )
   \                     ??GenericApp_ProcessEvent_1:
   \   00004C   EE           MOV     A,R6
   \   00004D   A2E0         MOV     C,0xE0 /* A   */.0
   \   00004F   501B         JNC     ??GenericApp_ProcessEvent_6
     98              {
     99                // Send "the" message
    100                GenericApp_SendTheMessage();           //SEND DATA
   \   000051                ; Setup parameters for call to function GenericApp_SendTheMessage
   \   000051   12....       LCALL   ??GenericApp_SendTheMessage?relay
    101                // Setup to send message again
    102                osal_start_timerEx( GenericApp_TaskID,
    103                                  GENERICAPP_SEND_MSG_EVT,
    104                                1000 );
   \   000054                ; Setup parameters for call to function osal_start_timerEx
   \   000054   7CE8         MOV     R4,#-0x18
   \   000056   7D03         MOV     R5,#0x3
   \   000058   7A01         MOV     R2,#0x1
   \   00005A   7B00         MOV     R3,#0x0
   \   00005C   90....       MOV     DPTR,#GenericApp_TaskID
   \   00005F   E0           MOVX    A,@DPTR
   \   000060   F9           MOV     R1,A
   \   000061   12....       LCALL   ??osal_start_timerEx?relay
    105                // return unprocessed events
    106                return (events ^ GENERICAPP_SEND_MSG_EVT);
   \   000064   7401         MOV     A,#0x1
   \   000066   6E           XRL     A,R6
   \   000067   FA           MOV     R2,A
   \   000068   EF           MOV     A,R7
   \   000069   FB           MOV     R3,A
   \   00006A   8004         SJMP    ??GenericApp_ProcessEvent_7
    107              } 
    108                return 0;
   \                     ??GenericApp_ProcessEvent_6:
   \   00006C   7A00         MOV     R2,#0x0
   \   00006E   7B00         MOV     R3,#0x0
   \                     ??GenericApp_ProcessEvent_7:
   \   000070   7F04         MOV     R7,#0x4
   \   000072   02....       LJMP    ?BANKED_LEAVE_XDATA
    109          }

   \                                 In  segment BANKED_CODE, align 1, keep-with-next
    110          void GenericApp_SendTheMessage( void )
   \                     GenericApp_SendTheMessage:
    111          {
   \   000000   74F6         MOV     A,#-0xa
   \   000002   12....       LCALL   ?BANKED_ENTER_XDATA
   \   000005                ; Saved register size: 10
   \   000005                ; Auto size: 36
   \   000005   74DC         MOV     A,#-0x24
   \   000007   12....       LCALL   ?ALLOC_XSTACK8
    112            char theMessageData[] = "send message from end\n\r";
   \   00000A   740C         MOV     A,#0xc
   \   00000C   12....       LCALL   ?XSTACK_DISP0_8
   \   00000F   AC82         MOV     R4,DPL
   \   000011   AD83         MOV     R5,DPH
   \   000013   7583..       MOV     DPH,#((`?<Constant "send message from end\\n\\r">` >> 8) & 0xff)
   \   000016   7582..       MOV     DPL,#(`?<Constant "send message from end\\n\\r">` & 0xff)
   \   000019   7418         MOV     A,#0x18
   \   00001B   12....       LCALL   ?MOVE_LONG8_XDATA_XDATA
    113             afAddrType_t GenericApp_DstAddr;
    114            GenericApp_DstAddr.addrMode = (afAddrMode_t)Addr16Bit;
   \   00001E   7408         MOV     A,#0x8
   \   000020   12....       LCALL   ?XSTACK_DISP0_8
   \   000023   7402         MOV     A,#0x2
   \   000025   F0           MOVX    @DPTR,A
    115            GenericApp_DstAddr.endPoint = GENERICAPP_ENDPOINT;
   \   000026   7409         MOV     A,#0x9
   \   000028   12....       LCALL   ?XSTACK_DISP0_8
   \   00002B   740A         MOV     A,#0xa
   \   00002D   F0           MOVX    @DPTR,A
    116            GenericApp_DstAddr.addr.shortAddr = 0x0000;  
   \   00002E   85..82       MOV     DPL,?XSP + 0
   \   000031   85..83       MOV     DPH,?XSP + 1
   \   000034   E4           CLR     A
   \   000035   F0           MOVX    @DPTR,A
   \   000036   A3           INC     DPTR
   \   000037   F0           MOVX    @DPTR,A
    117            
    118            if ( AF_DataRequest( &GenericApp_DstAddr, &GenericApp_epDesc,
    119                                 GENERICAPP_CLUSTERID,
    120                                 (byte)osal_strlen( theMessageData ) + 1,
    121                                 (byte *)&theMessageData,
    122                                 &GenericApp_TransID,
    123                                 AF_DISCV_ROUTE, AF_DEFAULT_RADIUS ) == afStatus_SUCCESS )
   \   000038                ; Setup parameters for call to function AF_DataRequest
   \   000038   75..1E       MOV     ?V0 + 0,#0x1e
   \   00003B   78..         MOV     R0,#?V0 + 0
   \   00003D   12....       LCALL   ?PUSH_XSTACK_I_ONE
   \   000040   75....       MOV     ?V0 + 0,#(GenericApp_TransID & 0xff)
   \   000043   75....       MOV     ?V0 + 1,#((GenericApp_TransID >> 8) & 0xff)
   \   000046   78..         MOV     R0,#?V0 + 0
   \   000048   12....       LCALL   ?PUSH_XSTACK_I_TWO
   \   00004B   740F         MOV     A,#0xf
   \   00004D   12....       LCALL   ?XSTACK_DISP0_8
   \   000050   8582..       MOV     ?V0 + 0,DPL
   \   000053   8583..       MOV     ?V0 + 1,DPH
   \   000056   78..         MOV     R0,#?V0 + 0
   \   000058   12....       LCALL   ?PUSH_XSTACK_I_TWO
   \   00005B                ; Setup parameters for call to function osal_strlen
   \   00005B   7411         MOV     A,#0x11
   \   00005D   12....       LCALL   ?XSTACK_DISP0_8
   \   000060   AA82         MOV     R2,DPL
   \   000062   AB83         MOV     R3,DPH
   \   000064   12....       LCALL   ??osal_strlen?relay
   \   000067   EA           MOV     A,R2
   \   000068   F8           MOV     R0,A
   \   000069   7401         MOV     A,#0x1
   \   00006B   28           ADD     A,R0
   \   00006C   F5..         MOV     ?V0 + 0,A
   \   00006E   E4           CLR     A
   \   00006F   3400         ADDC    A,#0x0
   \   000071   F5..         MOV     ?V0 + 1,A
   \   000073   78..         MOV     R0,#?V0 + 0
   \   000075   12....       LCALL   ?PUSH_XSTACK_I_TWO
   \   000078   75..01       MOV     ?V0 + 0,#0x1
   \   00007B   75..00       MOV     ?V0 + 1,#0x0
   \   00007E   78..         MOV     R0,#?V0 + 0
   \   000080   12....       LCALL   ?PUSH_XSTACK_I_TWO
   \   000083   7920         MOV     R1,#0x20
   \   000085   7C..         MOV     R4,#(GenericApp_epDesc & 0xff)
   \   000087   7D..         MOV     R5,#((GenericApp_epDesc >> 8) & 0xff)
   \   000089   7409         MOV     A,#0x9
   \   00008B   12....       LCALL   ?XSTACK_DISP0_8
   \   00008E   AA82         MOV     R2,DPL
   \   000090   AB83         MOV     R3,DPH
   \   000092   12....       LCALL   ??AF_DataRequest?relay
   \   000095   7409         MOV     A,#0x9
   \   000097   12....       LCALL   ?DEALLOC_XSTACK8
    124            {
    125              // Successfully requested to be sent.
    126            }
    127            else
    128            {
    129              // Error occurred in request to send.
    130            }
    131          }
   \   00009A   7424         MOV     A,#0x24
   \   00009C   12....       LCALL   ?DEALLOC_XSTACK8
   \   00009F   7F02         MOV     R7,#0x2
   \   0000A1   02....       LJMP    ?BANKED_LEAVE_XDATA

   \                                 In  segment BANK_RELAYS, align 1
   \                     ??GenericApp_Init?relay:
   \   000000   12....       LCALL   ?BDISPATCH
   \   000003   ......       DC24    GenericApp_Init

   \                                 In  segment BANK_RELAYS, align 1
   \                     ??GenericApp_ProcessEvent?relay:
   \   000000   12....       LCALL   ?BDISPATCH
   \   000003   ......       DC24    GenericApp_ProcessEvent

   \                                 In  segment BANK_RELAYS, align 1
   \                     ??GenericApp_SendTheMessage?relay:
   \   000000   12....       LCALL   ?BDISPATCH
   \   000003   ......       DC24    GenericApp_SendTheMessage

   \                                 In  segment XDATA_ROM_C, align 1
   \                     `?<Constant "send message from end\\n\\r">`:
   \   000000   73656E64     DB "send message from end\012\015"
   \            206D6573
   \            73616765
   \            2066726F
   \            6D20656E
   \            640A0D00
    132          
    133          
    134          
    135          
    136          
    137          
    138          
    139          
    140          
    141          

   Maximum stack usage in bytes:

     Function                       ISTACK PSTACK XSTACK
     --------                       ------ ------ ------
     GenericApp_Init                    2      0      0
       -> afRegister                    4      0      0
       -> osal_start_timerEx            4      0      0
     GenericApp_ProcessEvent            0      0     12
       -> osal_msg_receive              0      0     24
       -> HalLedSet                     0      0     24
       -> osal_msg_deallocate           0      0     24
       -> osal_msg_receive              0      0     24
       -> GenericApp_SendTheMessage     0      0     24
       -> osal_start_timerEx            0      0     24
     GenericApp_SendTheMessage          2      0     67
       -> osal_strlen                   0      0    102
       -> AF_DataRequest                0      0    110


   Segment part sizes:

     Function/Label                          Bytes
     --------------                          -----
     GenericApp_ClusterList                     2
     GenericApp_SimpleDesc                     12
     GenericApp_epDesc                          6
     GenericApp_TaskID                          1
     GenericApp_TransID                         1
     GenericApp_NwkState                        1
     GenericApp_Init                           81
     GenericApp_ProcessEvent                  117
     GenericApp_SendTheMessage                164
     ??GenericApp_Init?relay                    6
     ??GenericApp_ProcessEvent?relay            6
     ??GenericApp_SendTheMessage?relay          6
     ?<Constant "send message from end\n\r">   24

 
 362 bytes in segment BANKED_CODE
  18 bytes in segment BANK_RELAYS
  38 bytes in segment XDATA_ROM_C
   9 bytes in segment XDATA_Z
 
 380 bytes of CODE  memory
  38 bytes of CONST memory
   9 bytes of XDATA memory

Errors: none
Warnings: none
