###############################################################################
#                                                                             #
# IAR C/C++ Compiler V7.51A/W32 for 8051                06/Jan/2013  14:15:22 #
# Copyright 2004-2009 IAR Systems AB.                                         #
#                                                                             #
#    Core               =  plain                                              #
#    Code model         =  banked                                             #
#    Data model         =  large                                              #
#    Calling convention =  xdata reentrant                                    #
#    Constant location  =  data_rom                                           #
#    Dptr setup         =  1,16                                               #
#    Source file        =  C:\Texas Instruments\ZStack-CC2530-2.3.0-1.4.0\Pro #
#                          jects\zstack\Samples\frist_led_App\Source\Coordina #
#                          tor.c                                              #
#    Command line       =  -f "C:\Texas Instruments\ZStack-CC2530-2.3.0-1.4.0 #
#                          \Projects\zstack\Samples\frist_led_App\CC2530DB\.. #
#                          \..\..\Tools\CC2530DB\f8wCoord.cfg" (-DCPU32MHZ    #
#                          -DROOT=__near_func -DMAC_CFG_APP_PENDING_QUEUE=TRU #
#                          E -DZDO_COORDINATOR -DBLINK_LEDS) -f "C:\Texas     #
#                          Instruments\ZStack-CC2530-2.3.0-1.4.0\Projects\zst #
#                          ack\Samples\frist_led_App\CC2530DB\..\..\..\Tools\ #
#                          CC2530DB\f8wConfig.cfg" (-DSECURE=0                #
#                          -DZG_SECURE_DYNAMIC=0 -DREFLECTOR                  #
#                          -DDEFAULT_CHANLIST=0x00000800                      #
#                          -DZDAPP_CONFIG_PAN_ID=0x1234                       #
#                          -DNWK_START_DELAY=100 -DEXTENDED_JOINING_RANDOM_MA #
#                          SK=0x007F -DBEACON_REQUEST_DELAY=100               #
#                          -DBEACON_REQ_DELAY_MASK=0x00FF                     #
#                          -DROUTE_EXPIRY_TIME=30 -DAPSC_ACK_WAIT_DURATION_PO #
#                          LLED=3000 -DNWK_INDIRECT_MSG_TIMEOUT=7             #
#                          -DMAX_RREQ_ENTRIES=8 -DAPSC_MAX_FRAME_RETRIES=3    #
#                          -DNWK_MAX_DATA_RETRIES=2                           #
#                          -DMAX_POLL_FAILURE_RETRIES=2 -DMAX_BCAST=9         #
#                          -DAPS_MAX_GROUPS=16 -DMAX_RTG_ENTRIES=40           #
#                          -DNWK_MAX_BINDING_ENTRIES=4                        #
#                          -DMAX_BINDING_CLUSTER_IDS=4 "-DDEFAULT_KEY={0x01,  #
#                          0x03, 0x05, 0x07, 0x09, 0x0B, 0x0D, 0x0F, 0x00,    #
#                          0x02, 0x04, 0x06, 0x08, 0x0A, 0x0C, 0x0D}"         #
#                          -DMAC_MAX_FRAME_SIZE=116 "-DCONST=const __code"    #
#                          -DGENERIC=__generic -DRFD_RCVC_ALWAYS_ON=FALSE     #
#                          -DPOLL_RATE=1000 -DQUEUED_POLL_RATE=100            #
#                          -DRESPONSE_POLL_RATE=100) -DREJOIN_POLL_RATE=440   #
#                          "C:\Texas Instruments\ZStack-CC2530-2.3.0-1.4.0\Pr #
#                          ojects\zstack\Samples\frist_led_App\Source\Coordin #
#                          ator.c" -D ZTOOL_P1 -D MT_TASK -D MT_SYS_FUNC -D   #
#                          MT_ZDO_FUNC -D LCD_SUPPORTED=DEBUG -lC "C:\Texas   #
#                          Instruments\ZStack-CC2530-2.3.0-1.4.0\Projects\zst #
#                          ack\Samples\frist_led_App\CC2530DB\CoordinatorEB\L #
#                          ist\" -lA "C:\Texas Instruments\ZStack-CC2530-2.3. #
#                          0-1.4.0\Projects\zstack\Samples\frist_led_App\CC25 #
#                          30DB\CoordinatorEB\List\" --diag_suppress          #
#                          Pe001,Pa010 -o "C:\Texas                           #
#                          Instruments\ZStack-CC2530-2.3.0-1.4.0\Projects\zst #
#                          ack\Samples\frist_led_App\CC2530DB\CoordinatorEB\O #
#                          bj\" -e --require_prototypes --debug --core=plain  #
#                          --dptr=16,1 --data_model=large                     #
#                          --code_model=banked --calling_convention=xdata_ree #
#                          ntrant --place_constants=data_rom                  #
#                          --nr_virtual_regs 16 -I "C:\Texas                  #
#                          Instruments\ZStack-CC2530-2.3.0-1.4.0\Projects\zst #
#                          ack\Samples\frist_led_App\CC2530DB\" -I "C:\Texas  #
#                          Instruments\ZStack-CC2530-2.3.0-1.4.0\Projects\zst #
#                          ack\Samples\frist_led_App\CC2530DB\..\SOURCE\" -I  #
#                          "C:\Texas Instruments\ZStack-CC2530-2.3.0-1.4.0\Pr #
#                          ojects\zstack\Samples\frist_led_App\CC2530DB\..\.. #
#                          \..\ZMAIN\TI2530DB\" -I "C:\Texas                  #
#                          Instruments\ZStack-CC2530-2.3.0-1.4.0\Projects\zst #
#                          ack\Samples\frist_led_App\CC2530DB\..\..\..\..\..\ #
#                          COMPONENTS\MT\" -I "C:\Texas                       #
#                          Instruments\ZStack-CC2530-2.3.0-1.4.0\Projects\zst #
#                          ack\Samples\frist_led_App\CC2530DB\..\..\..\..\..\ #
#                          COMPONENTS\HAL\INCLUDE\" -I "C:\Texas              #
#                          Instruments\ZStack-CC2530-2.3.0-1.4.0\Projects\zst #
#                          ack\Samples\frist_led_App\CC2530DB\..\..\..\..\..\ #
#                          COMPONENTS\HAL\TARGET\CC2530EB\" -I "C:\Texas      #
#                          Instruments\ZStack-CC2530-2.3.0-1.4.0\Projects\zst #
#                          ack\Samples\frist_led_App\CC2530DB\..\..\..\..\..\ #
#                          COMPONENTS\OSAL\MCU\CCSOC\" -I "C:\Texas           #
#                          Instruments\ZStack-CC2530-2.3.0-1.4.0\Projects\zst #
#                          ack\Samples\frist_led_App\CC2530DB\..\..\..\..\..\ #
#                          COMPONENTS\OSAL\INCLUDE\" -I "C:\Texas             #
#                          Instruments\ZStack-CC2530-2.3.0-1.4.0\Projects\zst #
#                          ack\Samples\frist_led_App\CC2530DB\..\..\..\..\..\ #
#                          COMPONENTS\STACK\AF\" -I "C:\Texas                 #
#                          Instruments\ZStack-CC2530-2.3.0-1.4.0\Projects\zst #
#                          ack\Samples\frist_led_App\CC2530DB\..\..\..\..\..\ #
#                          COMPONENTS\STACK\NWK\" -I "C:\Texas                #
#                          Instruments\ZStack-CC2530-2.3.0-1.4.0\Projects\zst #
#                          ack\Samples\frist_led_App\CC2530DB\..\..\..\..\..\ #
#                          COMPONENTS\STACK\SEC\" -I "C:\Texas                #
#                          Instruments\ZStack-CC2530-2.3.0-1.4.0\Projects\zst #
#                          ack\Samples\frist_led_App\CC2530DB\..\..\..\..\..\ #
#                          COMPONENTS\STACK\SAPI\" -I "C:\Texas               #
#                          Instruments\ZStack-CC2530-2.3.0-1.4.0\Projects\zst #
#                          ack\Samples\frist_led_App\CC2530DB\..\..\..\..\..\ #
#                          COMPONENTS\STACK\SYS\" -I "C:\Texas                #
#                          Instruments\ZStack-CC2530-2.3.0-1.4.0\Projects\zst #
#                          ack\Samples\frist_led_App\CC2530DB\..\..\..\..\..\ #
#                          COMPONENTS\STACK\ZDO\" -I "C:\Texas                #
#                          Instruments\ZStack-CC2530-2.3.0-1.4.0\Projects\zst #
#                          ack\Samples\frist_led_App\CC2530DB\..\..\..\..\..\ #
#                          COMPONENTS\ZMAC\F8W\" -I "C:\Texas                 #
#                          Instruments\ZStack-CC2530-2.3.0-1.4.0\Projects\zst #
#                          ack\Samples\frist_led_App\CC2530DB\..\..\..\..\..\ #
#                          COMPONENTS\ZMAC\" -I "C:\Texas                     #
#                          Instruments\ZStack-CC2530-2.3.0-1.4.0\Projects\zst #
#                          ack\Samples\frist_led_App\CC2530DB\..\..\..\..\..\ #
#                          COMPONENTS\SERVICES\SADDR\" -I "C:\Texas           #
#                          Instruments\ZStack-CC2530-2.3.0-1.4.0\Projects\zst #
#                          ack\Samples\frist_led_App\CC2530DB\..\..\..\..\..\ #
#                          COMPONENTS\SERVICES\SDATA\" -I "C:\Texas           #
#                          Instruments\ZStack-CC2530-2.3.0-1.4.0\Projects\zst #
#                          ack\Samples\frist_led_App\CC2530DB\..\..\..\..\..\ #
#                          COMPONENTS\MAC\INCLUDE\" -I "C:\Texas              #
#                          Instruments\ZStack-CC2530-2.3.0-1.4.0\Projects\zst #
#                          ack\Samples\frist_led_App\CC2530DB\..\..\..\..\..\ #
#                          COMPONENTS\MAC\HIGH_LEVEL\" -I "C:\Texas           #
#                          Instruments\ZStack-CC2530-2.3.0-1.4.0\Projects\zst #
#                          ack\Samples\frist_led_App\CC2530DB\..\..\..\..\..\ #
#                          COMPONENTS\MAC\LOW_LEVEL\srf04\" -I "C:\Texas      #
#                          Instruments\ZStack-CC2530-2.3.0-1.4.0\Projects\zst #
#                          ack\Samples\frist_led_App\CC2530DB\..\..\..\..\..\ #
#                          COMPONENTS\MAC\LOW_LEVEL\srf04\SINGLE_CHIP\" -I    #
#                          "C:\Program Files\IAR Systems\Embedded Workbench   #
#                          5.3\8051\INC\" -I "C:\Program Files\IAR            #
#                          Systems\Embedded Workbench 5.3\8051\INC\CLIB\"     #
#                          -Ohz                                               #
#    List file          =  C:\Texas Instruments\ZStack-CC2530-2.3.0-1.4.0\Pro #
#                          jects\zstack\Samples\frist_led_App\CC2530DB\Coordi #
#                          natorEB\List\Coordinator.lst                       #
#    Object file        =  C:\Texas Instruments\ZStack-CC2530-2.3.0-1.4.0\Pro #
#                          jects\zstack\Samples\frist_led_App\CC2530DB\Coordi #
#                          natorEB\Obj\Coordinator.r51                        #
#                                                                             #
#                                                                             #
###############################################################################

C:\Texas Instruments\ZStack-CC2530-2.3.0-1.4.0\Projects\zstack\Samples\frist_led_App\Source\Coordinator.c
      1          #include "OSAL.h"
      2          #include "AF.h"
      3          #include "ZDApp.h"
      4          #include "ZDObject.h"
      5          #include "ZDProfile.h"
      6          
      7          #include "Coordinator.h"
      8          #include "DebugTrace.h"
      9          
     10          #if !defined( WIN32 )
     11            #include "OnBoard.h"
     12          #endif
     13          
     14          /* HAL */
     15          #include "hal_lcd.h"
     16          #include "hal_led.h"
     17          #include "hal_key.h"
     18          #include "hal_uart.h"
     19          // This list should be filled with Application specific Cluster IDs.

   \                                 In  segment XDATA_ROM_C, align 1
     20          const cId_t GenericApp_ClusterList[GENERICAPP_MAX_CLUSTERS] =
   \                     GenericApp_ClusterList:
   \   000000   0100         DW 1
     21          {
     22            GENERICAPP_CLUSTERID
     23          };
     24          /*
     25           简单描述符的结构体  用于描述一个zigbee的设备节点；
     26          typedef struct
     27          {
     28            byte          EndPoint;
     29            uint16        AppProfId;
     30            uint16        AppDeviceId;
     31            byte          AppDevVer:4;
     32            byte          Reserved:4;             // AF_V1_SUPPORT uses for AppFlags:4.
     33            byte          AppNumInClusters;
     34            cId_t         *pAppInClusterList;
     35            byte          AppNumOutClusters;
     36            cId_t         *pAppOutClusterList;
     37          } SimpleDescriptionFormat_t;
     38          */

   \                                 In  segment XDATA_ROM_C, align 1
     39          const SimpleDescriptionFormat_t GenericApp_SimpleDesc =
   \                     GenericApp_SimpleDesc:
   \   000000   0A           DB 10
   \   000001   040F0100     DW 3844, 1
   \   000005   0001         DB 0, 1
   \   000007   ....         DW GenericApp_ClusterList
   \   000009   01           DB 1
   \   00000A   ....         DW GenericApp_ClusterList
     40          {
     41            GENERICAPP_ENDPOINT,              //  int Endpoint;            10
     42            GENERICAPP_PROFID,                //  uint16 AppProfId[2];     0x0F04
     43            GENERICAPP_DEVICEID,              //  uint16 AppDeviceId[2];   0x0001
     44            GENERICAPP_DEVICE_VERSION,        //  int   AppDevVer:4;       0
     45            GENERICAPP_FLAGS,                 //  int   AppFlags:4;        0
     46            GENERICAPP_MAX_CLUSTERS,          //  byte  AppNumInClusters;  1
     47            (cId_t *)GenericApp_ClusterList,  //  byte *pAppInClusterList; GenericApp_ClusterList[GENERICAPP_MAX_CLUSTERS]
     48            GENERICAPP_MAX_CLUSTERS,          //  byte  AppNumInClusters;  1
     49            (cId_t *)GenericApp_ClusterList   //  byte *pAppInClusterList; GenericApp_ClusterList[GENERICAPP_MAX_CLUSTERS]
     50          };
     51          /*
     52          typedef struct
     53          {
     54            byte endPoint;
     55            byte *task_id;  // Pointer to location of the Application task ID.
     56            SimpleDescriptionFormat_t *simpleDesc;
     57            afNetworkLatencyReq_t latencyReq;
     58          } endPointDesc_t;
     59          */

   \                                 In  segment XDATA_Z, align 1, keep-with-next
     60          endPointDesc_t GenericApp_epDesc;   //节点描述符
   \                     GenericApp_epDesc:
   \   000000                DS 6
   \   000006                REQUIRE __INIT_XDATA_Z

   \                                 In  segment XDATA_Z, align 1, keep-with-next
     61          byte GenericApp_TaskID;             //任务优先级
   \                     GenericApp_TaskID:
   \   000000                DS 1
   \   000001                REQUIRE __INIT_XDATA_Z

   \                                 In  segment XDATA_Z, align 1, keep-with-next
     62          byte GenericApp_TransID;            //数据发送序列号
   \                     GenericApp_TransID:
   \   000000                DS 1
   \   000001                REQUIRE __INIT_XDATA_Z
     63          void GenericApp_MessageMSGCB( afIncomingMSGPacket_t *pkt );
     64          
     65          
     66          

   \                                 In  segment BANKED_CODE, align 1, keep-with-next
     67          void GenericApp_Init(byte task_id)
   \                     GenericApp_Init:
     68          {
   \   000000   C082         PUSH    DPL
   \   000002   C083         PUSH    DPH
   \   000004                ; Saved register size: 2
   \   000004                ; Auto size: 0
     69              
     70                GenericApp_TaskID  = task_id;
   \   000004   E9           MOV     A,R1
   \   000005   90....       MOV     DPTR,#GenericApp_TaskID
   \   000008   F0           MOVX    @DPTR,A
     71                GenericApp_TransID = 0;
   \   000009   E4           CLR     A
   \   00000A   90....       MOV     DPTR,#GenericApp_TransID
   \   00000D   F0           MOVX    @DPTR,A
     72                GenericApp_epDesc.endPoint = GENERICAPP_ENDPOINT;  //10
   \   00000E   740A         MOV     A,#0xa
   \   000010   90....       MOV     DPTR,#GenericApp_epDesc
   \   000013   F0           MOVX    @DPTR,A
     73                GenericApp_epDesc.task_id = &GenericApp_TaskID;    
   \   000014   90....       MOV     DPTR,#(GenericApp_epDesc + 1)
   \   000017   74..         MOV     A,#(GenericApp_TaskID & 0xff)
   \   000019   F0           MOVX    @DPTR,A
   \   00001A   A3           INC     DPTR
   \   00001B   74..         MOV     A,#((GenericApp_TaskID >> 8) & 0xff)
   \   00001D   F0           MOVX    @DPTR,A
     74                GenericApp_epDesc.simpleDesc =(SimpleDescriptionFormat_t *)&GenericApp_SimpleDesc;
   \   00001E   90....       MOV     DPTR,#(GenericApp_epDesc + 3)
   \   000021   74..         MOV     A,#(GenericApp_SimpleDesc & 0xff)
   \   000023   F0           MOVX    @DPTR,A
   \   000024   A3           INC     DPTR
   \   000025   74..         MOV     A,#((GenericApp_SimpleDesc >> 8) & 0xff)
   \   000027   F0           MOVX    @DPTR,A
     75                GenericApp_epDesc.latencyReq = noLatencyReqs;
   \   000028   E4           CLR     A
   \   000029   90....       MOV     DPTR,#(GenericApp_epDesc + 5)
   \   00002C   F0           MOVX    @DPTR,A
     76                afRegister(&GenericApp_epDesc);      
   \   00002D                ; Setup parameters for call to function afRegister
   \   00002D   7A..         MOV     R2,#(GenericApp_epDesc & 0xff)
   \   00002F   7B..         MOV     R3,#((GenericApp_epDesc >> 8) & 0xff)
   \   000031   12....       LCALL   ??afRegister?relay
     77          }
   \   000034   D083         POP     DPH
   \   000036   D082         POP     DPL
   \   000038   02....       LJMP    ?BRET
     78          

   \                                 In  segment BANKED_CODE, align 1, keep-with-next
     79          UINT16 GenericApp_ProcessEvent( byte task_id, UINT16 events )
   \                     GenericApp_ProcessEvent:
     80          {
   \   000000   74F4         MOV     A,#-0xc
   \   000002   12....       LCALL   ?BANKED_ENTER_XDATA
   \   000005                ; Saved register size: 12
   \   000005                ; Auto size: 0
   \   000005   8A..         MOV     ?V0 + 0,R2
   \   000007   8B..         MOV     ?V0 + 1,R3
     81               afIncomingMSGPacket_t *MSGpkt;
     82               if ( events & SYS_EVENT_MSG )
   \   000009   7480         MOV     A,#-0x80
   \   00000B   55..         ANL     A,?V0 + 1
   \   00000D   F9           MOV     R1,A
   \   00000E   E4           CLR     A
   \   00000F   7001         JNZ     ??GenericApp_ProcessEvent_0
   \   000011   E9           MOV     A,R1
   \                     ??GenericApp_ProcessEvent_0:
   \   000012   6038         JZ      ??GenericApp_ProcessEvent_1
     83               {
     84                  MSGpkt = (afIncomingMSGPacket_t *)osal_msg_receive( GenericApp_TaskID );
   \   000014                ; Setup parameters for call to function osal_msg_receive
   \   000014   8017         SJMP    ??GenericApp_ProcessEvent_2
     85                  while ( MSGpkt )
     86                  {
     87                      switch ( MSGpkt->hdr.event )
   \                     ??GenericApp_ProcessEvent_3:
   \   000016   8E82         MOV     DPL,R6
   \   000018   8F83         MOV     DPH,R7
   \   00001A   E0           MOVX    A,@DPTR
   \   00001B   641A         XRL     A,#0x1a
   \   00001D   7007         JNZ     ??GenericApp_ProcessEvent_4
     88                      { 
     89                        case AF_INCOMING_MSG_CMD:
     90                          GenericApp_MessageMSGCB( MSGpkt );
   \   00001F                ; Setup parameters for call to function GenericApp_MessageMSGCB
   \   00001F   EE           MOV     A,R6
   \   000020   FA           MOV     R2,A
   \   000021   EF           MOV     A,R7
   \   000022   FB           MOV     R3,A
   \   000023   12....       LCALL   ??GenericApp_MessageMSGCB?relay
     91                          break;
     92                        default:
     93                          break;  
     94                      }   
     95                   osal_msg_deallocate( (uint8 *)MSGpkt );    
   \                     ??GenericApp_ProcessEvent_4:
   \   000026                ; Setup parameters for call to function osal_msg_deallocate
   \   000026   EE           MOV     A,R6
   \   000027   FA           MOV     R2,A
   \   000028   EF           MOV     A,R7
   \   000029   FB           MOV     R3,A
   \   00002A   12....       LCALL   ??osal_msg_deallocate?relay
     96                   MSGpkt = (afIncomingMSGPacket_t *)osal_msg_receive( GenericApp_TaskID ); 
   \   00002D                ; Setup parameters for call to function osal_msg_receive
   \                     ??GenericApp_ProcessEvent_2:
   \   00002D   90....       MOV     DPTR,#GenericApp_TaskID
   \   000030   E0           MOVX    A,@DPTR
   \   000031   F9           MOV     R1,A
   \   000032   12....       LCALL   ??osal_msg_receive?relay
   \   000035   8A..         MOV     ?V0 + 2,R2
   \   000037   8B..         MOV     ?V0 + 3,R3
   \   000039   AE..         MOV     R6,?V0 + 2
   \   00003B   AF..         MOV     R7,?V0 + 3
     97                  }
   \   00003D   EE           MOV     A,R6
   \   00003E   7001         JNZ     ??GenericApp_ProcessEvent_5
   \   000040   EF           MOV     A,R7
   \                     ??GenericApp_ProcessEvent_5:
   \   000041   70D3         JNZ     ??GenericApp_ProcessEvent_3
     98                   return (events ^ SYS_EVENT_MSG);
   \   000043   AA..         MOV     R2,?V0 + 0
   \   000045   7480         MOV     A,#-0x80
   \   000047   65..         XRL     A,?V0 + 1
   \   000049   FB           MOV     R3,A
   \   00004A   8004         SJMP    ??GenericApp_ProcessEvent_6
     99                }  
    100                 return 0;
   \                     ??GenericApp_ProcessEvent_1:
   \   00004C   7A00         MOV     R2,#0x0
   \   00004E   7B00         MOV     R3,#0x0
   \                     ??GenericApp_ProcessEvent_6:
   \   000050   7F04         MOV     R7,#0x4
   \   000052   02....       LJMP    ?BANKED_LEAVE_XDATA
    101          }
    102          

   \                                 In  segment BANKED_CODE, align 1, keep-with-next
    103          void GenericApp_MessageMSGCB( afIncomingMSGPacket_t *pkt )
   \                     GenericApp_MessageMSGCB:
    104          {
   \   000000   74F5         MOV     A,#-0xb
   \   000002   12....       LCALL   ?BANKED_ENTER_XDATA
   \   000005                ; Saved register size: 11
   \   000005                ; Auto size: 10
   \   000005   74F6         MOV     A,#-0xa
   \   000007   12....       LCALL   ?ALLOC_XSTACK8
    105            static char flag = 0;
    106            unsigned char buf[10];
    107               switch ( pkt->clusterId )
   \   00000A   8A82         MOV     DPL,R2
   \   00000C   8B83         MOV     DPH,R3
   \   00000E   A3           INC     DPTR
   \   00000F   A3           INC     DPTR
   \   000010   A3           INC     DPTR
   \   000011   A3           INC     DPTR
   \   000012   E0           MOVX    A,@DPTR
   \   000013   6401         XRL     A,#0x1
   \   000015   7002         JNZ     ??GenericApp_MessageMSGCB_0
   \   000017   A3           INC     DPTR
   \   000018   E0           MOVX    A,@DPTR
   \                     ??GenericApp_MessageMSGCB_0:
   \   000019   7069         JNZ     ??GenericApp_MessageMSGCB_1
    108                {
    109                  case GENERICAPP_CLUSTERID:
    110                    osal_memcpy(buf, pkt->cmd.Data,3);
   \   00001B                ; Setup parameters for call to function osal_memcpy
   \   00001B   EA           MOV     A,R2
   \   00001C   2421         ADD     A,#0x21
   \   00001E   F582         MOV     DPL,A
   \   000020   EB           MOV     A,R3
   \   000021   3400         ADDC    A,#0x0
   \   000023   F583         MOV     DPH,A
   \   000025   E0           MOVX    A,@DPTR
   \   000026   F5..         MOV     ?V0 + 0,A
   \   000028   A3           INC     DPTR
   \   000029   E0           MOVX    A,@DPTR
   \   00002A   F5..         MOV     ?V0 + 1,A
   \   00002C   75..00       MOV     ?V0 + 2,#0x0
   \   00002F   78..         MOV     R0,#?V0 + 0
   \   000031   12....       LCALL   ?PUSH_XSTACK_I_THREE
   \   000034   7C03         MOV     R4,#0x3
   \   000036   7D00         MOV     R5,#0x0
   \   000038   EC           MOV     A,R4
   \   000039   12....       LCALL   ?XSTACK_DISP0_8
   \   00003C   AA82         MOV     R2,DPL
   \   00003E   AB83         MOV     R3,DPH
   \   000040   12....       LCALL   ??osal_memcpy?relay
   \   000043   7403         MOV     A,#0x3
   \   000045   12....       LCALL   ?DEALLOC_XSTACK8
    111                    if(buf[0]=='1' || buf[1] == '2' || buf[2] =='3' )
   \   000048   85..82       MOV     DPL,?XSP + 0
   \   00004B   85..83       MOV     DPH,?XSP + 1
   \   00004E   E0           MOVX    A,@DPTR
   \   00004F   6431         XRL     A,#0x31
   \   000051   6014         JZ      ??GenericApp_MessageMSGCB_2
   \   000053   7401         MOV     A,#0x1
   \   000055   12....       LCALL   ?XSTACK_DISP0_8
   \   000058   E0           MOVX    A,@DPTR
   \   000059   6432         XRL     A,#0x32
   \   00005B   600A         JZ      ??GenericApp_MessageMSGCB_2
   \   00005D   7402         MOV     A,#0x2
   \   00005F   12....       LCALL   ?XSTACK_DISP0_8
   \   000062   E0           MOVX    A,@DPTR
   \   000063   6433         XRL     A,#0x33
   \   000065   701D         JNZ     ??GenericApp_MessageMSGCB_1
    112                    {
    113                      if(flag == 0)
   \                     ??GenericApp_MessageMSGCB_2:
   \   000067   90....       MOV     DPTR,#??flag
   \   00006A   E0           MOVX    A,@DPTR
   \   00006B   700B         JNZ     ??GenericApp_MessageMSGCB_3
    114                      {
    115                        HalLedSet (HAL_LED_1, HAL_LED_MODE_ON);
   \   00006D                ; Setup parameters for call to function HalLedSet
   \   00006D   7A01         MOV     R2,#0x1
   \   00006F   7901         MOV     R1,#0x1
   \   000071   12....       LCALL   ??HalLedSet?relay
    116                        flag = 1;
   \   000074   7401         MOV     A,#0x1
   \   000076   8008         SJMP    ??GenericApp_MessageMSGCB_4
    117                        //HalLedBlink(HAL_LED_1,0,50,50);
    118                      }
    119                      else
    120                      {
    121                        HalLedSet (HAL_LED_1, HAL_LED_MODE_OFF); 
   \                     ??GenericApp_MessageMSGCB_3:
   \   000078                ; Setup parameters for call to function HalLedSet
   \   000078   7A00         MOV     R2,#0x0
   \   00007A   7901         MOV     R1,#0x1
   \   00007C   12....       LCALL   ??HalLedSet?relay
    122                        flag = 0;
   \   00007F   E4           CLR     A
   \                     ??GenericApp_MessageMSGCB_4:
   \   000080   90....       MOV     DPTR,#??flag
   \   000083   F0           MOVX    @DPTR,A
    123                      }
    124                        
    125                     }
    126                    break;
    127                  default:
    128                    break;
    129                 
    130                }
    131          }
   \                     ??GenericApp_MessageMSGCB_1:
   \   000084   740A         MOV     A,#0xa
   \   000086   12....       LCALL   ?DEALLOC_XSTACK8
   \   000089   7F03         MOV     R7,#0x3
   \   00008B   02....       LJMP    ?BANKED_LEAVE_XDATA

   \                                 In  segment XDATA_Z, align 1, keep-with-next
   \                     ??flag:
   \   000000                DS 1
   \   000001                REQUIRE __INIT_XDATA_Z

   \                                 In  segment BANK_RELAYS, align 1
   \                     ??GenericApp_Init?relay:
   \   000000   12....       LCALL   ?BDISPATCH
   \   000003   ......       DC24    GenericApp_Init

   \                                 In  segment BANK_RELAYS, align 1
   \                     ??GenericApp_ProcessEvent?relay:
   \   000000   12....       LCALL   ?BDISPATCH
   \   000003   ......       DC24    GenericApp_ProcessEvent

   \                                 In  segment BANK_RELAYS, align 1
   \                     ??GenericApp_MessageMSGCB?relay:
   \   000000   12....       LCALL   ?BDISPATCH
   \   000003   ......       DC24    GenericApp_MessageMSGCB
    132          
    133          
    134          
    135          
    136          
    137          
    138          
    139          
    140          
    141          
    142          
    143          
    144          
    145          
    146          
    147          
    148          
    149          
    150          
    151          

   Maximum stack usage in bytes:

     Function                     ISTACK PSTACK XSTACK
     --------                     ------ ------ ------
     GenericApp_Init                  2      0      0
       -> afRegister                  4      0      0
     GenericApp_MessageMSGCB          0      0     36
       -> osal_memcpy                 0      0     48
       -> HalLedSet                   0      0     42
       -> HalLedSet                   0      0     42
     GenericApp_ProcessEvent          0      0     12
       -> osal_msg_receive            0      0     24
       -> GenericApp_MessageMSGCB     0      0     24
       -> osal_msg_deallocate         0      0     24
       -> osal_msg_receive            0      0     24


   Segment part sizes:

     Function/Label                  Bytes
     --------------                  -----
     GenericApp_ClusterList             2
     GenericApp_SimpleDesc             12
     GenericApp_epDesc                  6
     GenericApp_TaskID                  1
     GenericApp_TransID                 1
     GenericApp_Init                   59
     GenericApp_ProcessEvent           85
     GenericApp_MessageMSGCB          142
     flag                               1
     ??GenericApp_Init?relay            6
     ??GenericApp_ProcessEvent?relay    6
     ??GenericApp_MessageMSGCB?relay    6

 
 286 bytes in segment BANKED_CODE
  18 bytes in segment BANK_RELAYS
  14 bytes in segment XDATA_ROM_C
   9 bytes in segment XDATA_Z
 
 304 bytes of CODE  memory
  14 bytes of CONST memory
   9 bytes of XDATA memory

Errors: none
Warnings: none
