


ARM Macro Assembler    Page 1 


    1 00000000         ;/******************************************************
                       ***********************
    2 00000000         ; * @file:    startup_LPC11xx.s
    3 00000000         ; * @purpose: CMSIS Cortex-M0 Core Device Startup File 
    4 00000000         ; *           for the NXP LPC11xx Device Series 
    5 00000000         ; * @version: V1.0
    6 00000000         ; * @date:    25. Nov. 2008
    7 00000000         ; *------- <<< Use Configuration Wizard in Context Menu 
                       >>> ------------------
    8 00000000         ; *
    9 00000000         ; * Copyright (C) 2008 ARM Limited. All rights reserved.
                       
   10 00000000         ; * ARM Limited (ARM) is supplying this software for use
                        with Cortex-M0 
   11 00000000         ; * processor based microcontrollers.  This file can be 
                       freely distributed 
   12 00000000         ; * within development tools that are supporting such AR
                       M based processors. 
   13 00000000         ; *
   14 00000000         ; * THIS SOFTWARE IS PROVIDED "AS IS".  NO WARRANTIES, W
                       HETHER EXPRESS, IMPLIED
   15 00000000         ; * OR STATUTORY, INCLUDING, BUT NOT LIMITED TO, IMPLIED
                        WARRANTIES OF
   16 00000000         ; * MERCHANTABILITY AND FITNESS FOR A PARTICULAR PURPOSE
                        APPLY TO THIS SOFTWARE.
   17 00000000         ; * ARM SHALL NOT, IN ANY CIRCUMSTANCES, BE LIABLE FOR S
                       PECIAL, INCIDENTAL, OR
   18 00000000         ; * CONSEQUENTIAL DAMAGES, FOR ANY REASON WHATSOEVER.
   19 00000000         ; *
   20 00000000         ; ******************************************************
                       ***********************/
   21 00000000         
   22 00000000         
   23 00000000         ; <h> Stack Configuration
   24 00000000         ;   <o> Stack Size (in Bytes) <0x0-0xFFFFFFFF:8>
   25 00000000         ; </h>
   26 00000000         
   27 00000000 00000100 
                       Stack_Size
                               EQU              0x00000100
   28 00000000         
   29 00000000                 AREA             STACK, NOINIT, READWRITE, ALIGN
=3
   30 00000000         Stack_Mem
                               SPACE            Stack_Size
   31 00000100         __initial_sp
   32 00000100         
   33 00000100         
   34 00000100         ; <h> Heap Configuration
   35 00000100         ;   <o>  Heap Size (in Bytes) <0x0-0xFFFFFFFF:8>
   36 00000100         ; </h>
   37 00000100         
   38 00000100 00000000 
                       Heap_Size
                               EQU              0x00000000
   39 00000100         
   40 00000100                 AREA             HEAP, NOINIT, READWRITE, ALIGN=
3
   41 00000000         __heap_base



ARM Macro Assembler    Page 2 


   42 00000000         Heap_Mem
                               SPACE            Heap_Size
   43 00000000         __heap_limit
   44 00000000         
   45 00000000         
   46 00000000                 PRESERVE8
   47 00000000                 THUMB
   48 00000000         
   49 00000000         
   50 00000000         ; Vector Table Mapped to Address 0 at Reset
   51 00000000         
   52 00000000                 AREA             RESET, DATA, READONLY
   53 00000000                 EXPORT           __Vectors
   54 00000000         
   55 00000000 00000000 
                       __Vectors
                               DCD              __initial_sp ; Top of Stack
   56 00000004 00000000        DCD              Reset_Handler ; Reset Handler
   57 00000008 00000000        DCD              NMI_Handler ; NMI Handler
   58 0000000C 00000000        DCD              HardFault_Handler ; Hard Fault 
                                                            Handler
   59 00000010 00000000        DCD              MemManage_Handler 
                                                            ; MPU Fault Handler
                                                            
   60 00000014 00000000        DCD              BusFault_Handler 
                                                            ; Bus Fault Handler
                                                            
   61 00000018 00000000        DCD              UsageFault_Handler ; Usage Faul
                                                            t Handler
   62 0000001C 00000000        DCD              0           ; Reserved
   63 00000020 00000000        DCD              0           ; Reserved
   64 00000024 00000000        DCD              0           ; Reserved
   65 00000028 00000000        DCD              0           ; Reserved
   66 0000002C 00000000        DCD              SVC_Handler ; SVCall Handler
   67 00000030 00000000        DCD              DebugMon_Handler ; Debug Monito
                                                            r Handler
   68 00000034 00000000        DCD              0           ; Reserved
   69 00000038         ;DCD     PendSV_Handler            ; PendSV Handler
   70 00000038                 IMPORT           OS_CPU_PendSVHandler
   71 00000038 00000000        DCD              OS_CPU_PendSVHandler
   72 0000003C         ;DCD     SysTick_Handler           ; SysTick Handler
   73 0000003C                 IMPORT           OS_CPU_SysTickHandler
   74 0000003C 00000000        DCD              OS_CPU_SysTickHandler
   75 00000040         
   76 00000040         ; External Interrupts
   77 00000040 00000000        DCD              WAKEUP_IRQHandler ; 15 wakeup s
                                                            ources for all the
   78 00000044 00000000        DCD              WAKEUP_IRQHandler ; I/O pins st
                                                            arting from PIO0 (0
                                                            :11)
   79 00000048 00000000        DCD              WAKEUP_IRQHandler ; all 40 are 
                                                            routed to the same 
                                                            ISR                
                                                                   
   80 0000004C 00000000        DCD              WAKEUP_IRQHandler
   81 00000050 00000000        DCD              WAKEUP_IRQHandler
   82 00000054 00000000        DCD              WAKEUP_IRQHandler
   83 00000058 00000000        DCD              WAKEUP_IRQHandler
   84 0000005C 00000000        DCD              WAKEUP_IRQHandler



ARM Macro Assembler    Page 3 


   85 00000060 00000000        DCD              WAKEUP_IRQHandler
   86 00000064 00000000        DCD              WAKEUP_IRQHandler
   87 00000068 00000000        DCD              WAKEUP_IRQHandler
   88 0000006C 00000000        DCD              WAKEUP_IRQHandler
   89 00000070 00000000        DCD              WAKEUP_IRQHandler ; PIO1 (0:11)
                                                            
   90 00000074 00000000        DCD              CAN_IRQHandler ; CAN           
                                                                 
   91 00000078 00000000        DCD              SSP1_IRQHandler ; SSP1         
                                                                  
   92 0000007C 00000000        DCD              I2C_IRQHandler ; I2C
   93 00000080 00000000        DCD              TIMER16_0_IRQHandler 
                                                            ; 16-bit Timer0
   94 00000084 00000000        DCD              TIMER16_1_IRQHandler 
                                                            ; 16-bit Timer1
   95 00000088 00000000        DCD              TIMER32_0_IRQHandler 
                                                            ; 32-bit Timer0
   96 0000008C 00000000        DCD              TIMER32_1_IRQHandler 
                                                            ; 32-bit Timer1
   97 00000090 00000000        DCD              SSP0_IRQHandler ; SSP0
   98 00000094 00000000        DCD              UART_IRQHandler ; UART
   99 00000098 00000000        DCD              USB_IRQHandler ; USB IRQ
  100 0000009C 00000000        DCD              USB_FIQHandler ; USB FIQ
  101 000000A0 00000000        DCD              ADC_IRQHandler ; A/D Converter
  102 000000A4 00000000        DCD              WDT_IRQHandler ; Watchdog timer
                                                            
  103 000000A8 00000000        DCD              BOD_IRQHandler 
                                                            ; Brown Out Detect
  104 000000AC 00000000        DCD              FMC_IRQHandler ; IP2111 Flash M
                                                            emory Controller
  105 000000B0 00000000        DCD              PIOINT3_IRQHandler ; PIO INT3
  106 000000B4 00000000        DCD              PIOINT2_IRQHandler ; PIO INT2
  107 000000B8 00000000        DCD              PIOINT1_IRQHandler ; PIO INT1
  108 000000BC 00000000        DCD              PIOINT0_IRQHandler ; PIO INT0
  109 000000C0         
  110 000000C0         
  111 000000C0                 IF               :LNOT::DEF:NO_CRP
  112 000000C0                 AREA             |.ARM.__at_0x02FC|, CODE, READO
NLY
  113 00000000 FFFFFFFF 
                       CRP_Key DCD              0xFFFFFFFF
  114 00000004                 ENDIF
  115 00000004         
  116 00000004         
  117 00000004                 AREA             |.text|, CODE, READONLY
  118 00000000         
  119 00000000         
  120 00000000         ; Reset Handler
  121 00000000         
  122 00000000         Reset_Handler
                               PROC
  123 00000000                 EXPORT           Reset_Handler             [WEAK
]
  124 00000000                 IMPORT           __main
  125 00000000 4805            LDR              R0, =__main
  126 00000002 4700            BX               R0
  127 00000004                 ENDP
  128 00000004         
  129 00000004         



ARM Macro Assembler    Page 4 


  130 00000004         ; Dummy Exception Handlers (infinite loops which can be 
                       modified)                
  131 00000004         
  132 00000004         NMI_Handler
                               PROC
  133 00000004                 EXPORT           NMI_Handler               [WEAK
]
  134 00000004 E7FE            B                .
  135 00000006                 ENDP
  137 00000006         HardFault_Handler
                               PROC
  138 00000006                 EXPORT           HardFault_Handler         [WEAK
]
  139 00000006 E7FE            B                .
  140 00000008                 ENDP
  142 00000008         MemManage_Handler
                               PROC
  143 00000008                 EXPORT           MemManage_Handler         [WEAK
]
  144 00000008 E7FE            B                .
  145 0000000A                 ENDP
  147 0000000A         BusFault_Handler
                               PROC
  148 0000000A                 EXPORT           BusFault_Handler          [WEAK
]
  149 0000000A E7FE            B                .
  150 0000000C                 ENDP
  152 0000000C         UsageFault_Handler
                               PROC
  153 0000000C                 EXPORT           UsageFault_Handler        [WEAK
]
  154 0000000C E7FE            B                .
  155 0000000E                 ENDP
  156 0000000E         SVC_Handler
                               PROC
  157 0000000E                 EXPORT           SVC_Handler               [WEAK
]
  158 0000000E E7FE            B                .
  159 00000010                 ENDP
  161 00000010         DebugMon_Handler
                               PROC
  162 00000010                 EXPORT           DebugMon_Handler          [WEAK
]
  163 00000010 E7FE            B                .
  164 00000012                 ENDP
  165 00000012         PendSV_Handler
                               PROC
  166 00000012                 EXPORT           PendSV_Handler            [WEAK
]
  167 00000012 E7FE            B                .
  168 00000014                 ENDP
  169 00000014         SysTick_Handler
                               PROC
  170 00000014                 EXPORT           SysTick_Handler           [WEAK
]
  171 00000014 E7FE            B                .
  172 00000016                 ENDP
  173 00000016         
  174 00000016         Default_Handler



ARM Macro Assembler    Page 5 


                               PROC
  175 00000016         
  176 00000016                 EXPORT           WAKEUP_IRQHandler         [WEAK
]
  177 00000016                 EXPORT           CAN_IRQHandler            [WEAK
]
  178 00000016                 EXPORT           SSP1_IRQHandler           [WEAK
]
  179 00000016                 EXPORT           I2C_IRQHandler            [WEAK
]
  180 00000016                 EXPORT           TIMER16_0_IRQHandler      [WEAK
]
  181 00000016                 EXPORT           TIMER16_1_IRQHandler      [WEAK
]
  182 00000016                 EXPORT           TIMER32_0_IRQHandler      [WEAK
]
  183 00000016                 EXPORT           TIMER32_1_IRQHandler      [WEAK
]
  184 00000016                 EXPORT           SSP0_IRQHandler           [WEAK
]
  185 00000016                 EXPORT           UART_IRQHandler           [WEAK
]
  186 00000016         
  187 00000016                 EXPORT           USB_IRQHandler            [WEAK
]
  188 00000016                 EXPORT           USB_FIQHandler            [WEAK
]
  189 00000016                 EXPORT           ADC_IRQHandler            [WEAK
]
  190 00000016                 EXPORT           WDT_IRQHandler            [WEAK
]
  191 00000016                 EXPORT           BOD_IRQHandler            [WEAK
]
  192 00000016                 EXPORT           FMC_IRQHandler            [WEAK
]
  193 00000016                 EXPORT           PIOINT3_IRQHandler        [WEAK
]
  194 00000016                 EXPORT           PIOINT2_IRQHandler        [WEAK
]
  195 00000016                 EXPORT           PIOINT1_IRQHandler        [WEAK
]
  196 00000016                 EXPORT           PIOINT0_IRQHandler        [WEAK
]
  197 00000016         
  198 00000016         
  199 00000016         WAKEUP_IRQHandler
  200 00000016         CAN_IRQHandler
  201 00000016         SSP1_IRQHandler
  202 00000016         I2C_IRQHandler
  203 00000016         TIMER16_0_IRQHandler
  204 00000016         TIMER16_1_IRQHandler
  205 00000016         TIMER32_0_IRQHandler
  206 00000016         TIMER32_1_IRQHandler
  207 00000016         SSP0_IRQHandler
  208 00000016         UART_IRQHandler
  209 00000016         USB_IRQHandler
  210 00000016         USB_FIQHandler
  211 00000016         ADC_IRQHandler
  212 00000016         WDT_IRQHandler



ARM Macro Assembler    Page 6 


  213 00000016         BOD_IRQHandler
  214 00000016         FMC_IRQHandler
  215 00000016         PIOINT3_IRQHandler
  216 00000016         PIOINT2_IRQHandler
  217 00000016         PIOINT1_IRQHandler
  218 00000016         PIOINT0_IRQHandler
  219 00000016         
  220 00000016 E7FE            B                .
  221 00000018         
  222 00000018                 ENDP
  223 00000018         
  224 00000018         
  225 00000018                 ALIGN
  226 00000018         
  227 00000018         
  228 00000018         ; User Initial Stack & Heap
  229 00000018         
  230 00000018                 IF               :DEF:__MICROLIB
  231 00000018         
  232 00000018                 EXPORT           __initial_sp
  233 00000018                 EXPORT           __heap_base
  234 00000018                 EXPORT           __heap_limit
  235 00000018         
  236 00000018                 ELSE
  250                          ENDIF
  251 00000018         
  252 00000018         
  253 00000018                 END
              00000000 
Command Line: --debug --xref --cpu=Cortex-M0 --apcs=interwork --depend=.\output
\startup_LPC11xx.d -o.\output\startup_LPC11xx.o -I"D:\Program Files\Keil\ARM\IN
C" -I"D:\Program Files\Keil\ARM\INC\NXP\LPC11xx" --predefine="__MICROLIB SETA 1
" --list=.\listing\startup_LPC11xx.lst ..\Lib_MCU\src\startup_LPC11xx.s



ARM Macro Assembler    Page 1 Alphabetic symbol ordering
Relocatable symbols

STACK 00000000

Symbol: STACK
   Definitions
      At line 29 in file ..\Lib_MCU\src\startup_LPC11xx.s
   Uses
      None
Comment: STACK unused
Stack_Mem 00000000

Symbol: Stack_Mem
   Definitions
      At line 30 in file ..\Lib_MCU\src\startup_LPC11xx.s
   Uses
      None
Comment: Stack_Mem unused
__initial_sp 00000100

Symbol: __initial_sp
   Definitions
      At line 31 in file ..\Lib_MCU\src\startup_LPC11xx.s
   Uses
      At line 55 in file ..\Lib_MCU\src\startup_LPC11xx.s
      At line 232 in file ..\Lib_MCU\src\startup_LPC11xx.s

3 symbols



ARM Macro Assembler    Page 1 Alphabetic symbol ordering
Relocatable symbols

HEAP 00000000

Symbol: HEAP
   Definitions
      At line 40 in file ..\Lib_MCU\src\startup_LPC11xx.s
   Uses
      None
Comment: HEAP unused
Heap_Mem 00000000

Symbol: Heap_Mem
   Definitions
      At line 42 in file ..\Lib_MCU\src\startup_LPC11xx.s
   Uses
      None
Comment: Heap_Mem unused
__heap_base 00000000

Symbol: __heap_base
   Definitions
      At line 41 in file ..\Lib_MCU\src\startup_LPC11xx.s
   Uses
      At line 233 in file ..\Lib_MCU\src\startup_LPC11xx.s
Comment: __heap_base used once
__heap_limit 00000000

Symbol: __heap_limit
   Definitions
      At line 43 in file ..\Lib_MCU\src\startup_LPC11xx.s
   Uses
      At line 234 in file ..\Lib_MCU\src\startup_LPC11xx.s
Comment: __heap_limit used once
4 symbols



ARM Macro Assembler    Page 1 Alphabetic symbol ordering
Relocatable symbols

RESET 00000000

Symbol: RESET
   Definitions
      At line 52 in file ..\Lib_MCU\src\startup_LPC11xx.s
   Uses
      None
Comment: RESET unused
__Vectors 00000000

Symbol: __Vectors
   Definitions
      At line 55 in file ..\Lib_MCU\src\startup_LPC11xx.s
   Uses
      At line 53 in file ..\Lib_MCU\src\startup_LPC11xx.s
Comment: __Vectors used once
2 symbols



ARM Macro Assembler    Page 1 Alphabetic symbol ordering
Relocatable symbols

.ARM.__at_0x02FC 00000000

Symbol: .ARM.__at_0x02FC
   Definitions
      At line 112 in file ..\Lib_MCU\src\startup_LPC11xx.s
   Uses
      None
Comment: .ARM.__at_0x02FC unused
CRP_Key 00000000

Symbol: CRP_Key
   Definitions
      At line 113 in file ..\Lib_MCU\src\startup_LPC11xx.s
   Uses
      None
Comment: CRP_Key unused
2 symbols



ARM Macro Assembler    Page 1 Alphabetic symbol ordering
Relocatable symbols

.text 00000000

Symbol: .text
   Definitions
      At line 117 in file ..\Lib_MCU\src\startup_LPC11xx.s
   Uses
      None
Comment: .text unused
ADC_IRQHandler 00000016

Symbol: ADC_IRQHandler
   Definitions
      At line 211 in file ..\Lib_MCU\src\startup_LPC11xx.s
   Uses
      At line 101 in file ..\Lib_MCU\src\startup_LPC11xx.s
      At line 189 in file ..\Lib_MCU\src\startup_LPC11xx.s

BOD_IRQHandler 00000016

Symbol: BOD_IRQHandler
   Definitions
      At line 213 in file ..\Lib_MCU\src\startup_LPC11xx.s
   Uses
      At line 103 in file ..\Lib_MCU\src\startup_LPC11xx.s
      At line 191 in file ..\Lib_MCU\src\startup_LPC11xx.s

BusFault_Handler 0000000A

Symbol: BusFault_Handler
   Definitions
      At line 147 in file ..\Lib_MCU\src\startup_LPC11xx.s
   Uses
      At line 60 in file ..\Lib_MCU\src\startup_LPC11xx.s
      At line 148 in file ..\Lib_MCU\src\startup_LPC11xx.s

CAN_IRQHandler 00000016

Symbol: CAN_IRQHandler
   Definitions
      At line 200 in file ..\Lib_MCU\src\startup_LPC11xx.s
   Uses
      At line 90 in file ..\Lib_MCU\src\startup_LPC11xx.s
      At line 177 in file ..\Lib_MCU\src\startup_LPC11xx.s

DebugMon_Handler 00000010

Symbol: DebugMon_Handler
   Definitions
      At line 161 in file ..\Lib_MCU\src\startup_LPC11xx.s
   Uses
      At line 67 in file ..\Lib_MCU\src\startup_LPC11xx.s
      At line 162 in file ..\Lib_MCU\src\startup_LPC11xx.s

Default_Handler 00000016

Symbol: Default_Handler
   Definitions
      At line 174 in file ..\Lib_MCU\src\startup_LPC11xx.s
   Uses



ARM Macro Assembler    Page 2 Alphabetic symbol ordering
Relocatable symbols

      None
Comment: Default_Handler unused
FMC_IRQHandler 00000016

Symbol: FMC_IRQHandler
   Definitions
      At line 214 in file ..\Lib_MCU\src\startup_LPC11xx.s
   Uses
      At line 104 in file ..\Lib_MCU\src\startup_LPC11xx.s
      At line 192 in file ..\Lib_MCU\src\startup_LPC11xx.s

HardFault_Handler 00000006

Symbol: HardFault_Handler
   Definitions
      At line 137 in file ..\Lib_MCU\src\startup_LPC11xx.s
   Uses
      At line 58 in file ..\Lib_MCU\src\startup_LPC11xx.s
      At line 138 in file ..\Lib_MCU\src\startup_LPC11xx.s

I2C_IRQHandler 00000016

Symbol: I2C_IRQHandler
   Definitions
      At line 202 in file ..\Lib_MCU\src\startup_LPC11xx.s
   Uses
      At line 92 in file ..\Lib_MCU\src\startup_LPC11xx.s
      At line 179 in file ..\Lib_MCU\src\startup_LPC11xx.s

MemManage_Handler 00000008

Symbol: MemManage_Handler
   Definitions
      At line 142 in file ..\Lib_MCU\src\startup_LPC11xx.s
   Uses
      At line 59 in file ..\Lib_MCU\src\startup_LPC11xx.s
      At line 143 in file ..\Lib_MCU\src\startup_LPC11xx.s

NMI_Handler 00000004

Symbol: NMI_Handler
   Definitions
      At line 132 in file ..\Lib_MCU\src\startup_LPC11xx.s
   Uses
      At line 57 in file ..\Lib_MCU\src\startup_LPC11xx.s
      At line 133 in file ..\Lib_MCU\src\startup_LPC11xx.s

PIOINT0_IRQHandler 00000016

Symbol: PIOINT0_IRQHandler
   Definitions
      At line 218 in file ..\Lib_MCU\src\startup_LPC11xx.s
   Uses
      At line 108 in file ..\Lib_MCU\src\startup_LPC11xx.s
      At line 196 in file ..\Lib_MCU\src\startup_LPC11xx.s

PIOINT1_IRQHandler 00000016

Symbol: PIOINT1_IRQHandler



ARM Macro Assembler    Page 3 Alphabetic symbol ordering
Relocatable symbols

   Definitions
      At line 217 in file ..\Lib_MCU\src\startup_LPC11xx.s
   Uses
      At line 107 in file ..\Lib_MCU\src\startup_LPC11xx.s
      At line 195 in file ..\Lib_MCU\src\startup_LPC11xx.s

PIOINT2_IRQHandler 00000016

Symbol: PIOINT2_IRQHandler
   Definitions
      At line 216 in file ..\Lib_MCU\src\startup_LPC11xx.s
   Uses
      At line 106 in file ..\Lib_MCU\src\startup_LPC11xx.s
      At line 194 in file ..\Lib_MCU\src\startup_LPC11xx.s

PIOINT3_IRQHandler 00000016

Symbol: PIOINT3_IRQHandler
   Definitions
      At line 215 in file ..\Lib_MCU\src\startup_LPC11xx.s
   Uses
      At line 105 in file ..\Lib_MCU\src\startup_LPC11xx.s
      At line 193 in file ..\Lib_MCU\src\startup_LPC11xx.s

PendSV_Handler 00000012

Symbol: PendSV_Handler
   Definitions
      At line 165 in file ..\Lib_MCU\src\startup_LPC11xx.s
   Uses
      At line 166 in file ..\Lib_MCU\src\startup_LPC11xx.s
Comment: PendSV_Handler used once
Reset_Handler 00000000

Symbol: Reset_Handler
   Definitions
      At line 122 in file ..\Lib_MCU\src\startup_LPC11xx.s
   Uses
      At line 56 in file ..\Lib_MCU\src\startup_LPC11xx.s
      At line 123 in file ..\Lib_MCU\src\startup_LPC11xx.s

SSP0_IRQHandler 00000016

Symbol: SSP0_IRQHandler
   Definitions
      At line 207 in file ..\Lib_MCU\src\startup_LPC11xx.s
   Uses
      At line 97 in file ..\Lib_MCU\src\startup_LPC11xx.s
      At line 184 in file ..\Lib_MCU\src\startup_LPC11xx.s

SSP1_IRQHandler 00000016

Symbol: SSP1_IRQHandler
   Definitions
      At line 201 in file ..\Lib_MCU\src\startup_LPC11xx.s
   Uses
      At line 91 in file ..\Lib_MCU\src\startup_LPC11xx.s
      At line 178 in file ..\Lib_MCU\src\startup_LPC11xx.s




ARM Macro Assembler    Page 4 Alphabetic symbol ordering
Relocatable symbols

SVC_Handler 0000000E

Symbol: SVC_Handler
   Definitions
      At line 156 in file ..\Lib_MCU\src\startup_LPC11xx.s
   Uses
      At line 66 in file ..\Lib_MCU\src\startup_LPC11xx.s
      At line 157 in file ..\Lib_MCU\src\startup_LPC11xx.s

SysTick_Handler 00000014

Symbol: SysTick_Handler
   Definitions
      At line 169 in file ..\Lib_MCU\src\startup_LPC11xx.s
   Uses
      At line 170 in file ..\Lib_MCU\src\startup_LPC11xx.s
Comment: SysTick_Handler used once
TIMER16_0_IRQHandler 00000016

Symbol: TIMER16_0_IRQHandler
   Definitions
      At line 203 in file ..\Lib_MCU\src\startup_LPC11xx.s
   Uses
      At line 93 in file ..\Lib_MCU\src\startup_LPC11xx.s
      At line 180 in file ..\Lib_MCU\src\startup_LPC11xx.s

TIMER16_1_IRQHandler 00000016

Symbol: TIMER16_1_IRQHandler
   Definitions
      At line 204 in file ..\Lib_MCU\src\startup_LPC11xx.s
   Uses
      At line 94 in file ..\Lib_MCU\src\startup_LPC11xx.s
      At line 181 in file ..\Lib_MCU\src\startup_LPC11xx.s

TIMER32_0_IRQHandler 00000016

Symbol: TIMER32_0_IRQHandler
   Definitions
      At line 205 in file ..\Lib_MCU\src\startup_LPC11xx.s
   Uses
      At line 95 in file ..\Lib_MCU\src\startup_LPC11xx.s
      At line 182 in file ..\Lib_MCU\src\startup_LPC11xx.s

TIMER32_1_IRQHandler 00000016

Symbol: TIMER32_1_IRQHandler
   Definitions
      At line 206 in file ..\Lib_MCU\src\startup_LPC11xx.s
   Uses
      At line 96 in file ..\Lib_MCU\src\startup_LPC11xx.s
      At line 183 in file ..\Lib_MCU\src\startup_LPC11xx.s

UART_IRQHandler 00000016

Symbol: UART_IRQHandler
   Definitions
      At line 208 in file ..\Lib_MCU\src\startup_LPC11xx.s
   Uses



ARM Macro Assembler    Page 5 Alphabetic symbol ordering
Relocatable symbols

      At line 98 in file ..\Lib_MCU\src\startup_LPC11xx.s
      At line 185 in file ..\Lib_MCU\src\startup_LPC11xx.s

USB_FIQHandler 00000016

Symbol: USB_FIQHandler
   Definitions
      At line 210 in file ..\Lib_MCU\src\startup_LPC11xx.s
   Uses
      At line 100 in file ..\Lib_MCU\src\startup_LPC11xx.s
      At line 188 in file ..\Lib_MCU\src\startup_LPC11xx.s

USB_IRQHandler 00000016

Symbol: USB_IRQHandler
   Definitions
      At line 209 in file ..\Lib_MCU\src\startup_LPC11xx.s
   Uses
      At line 99 in file ..\Lib_MCU\src\startup_LPC11xx.s
      At line 187 in file ..\Lib_MCU\src\startup_LPC11xx.s

UsageFault_Handler 0000000C

Symbol: UsageFault_Handler
   Definitions
      At line 152 in file ..\Lib_MCU\src\startup_LPC11xx.s
   Uses
      At line 61 in file ..\Lib_MCU\src\startup_LPC11xx.s
      At line 153 in file ..\Lib_MCU\src\startup_LPC11xx.s

WAKEUP_IRQHandler 00000016

Symbol: WAKEUP_IRQHandler
   Definitions
      At line 199 in file ..\Lib_MCU\src\startup_LPC11xx.s
   Uses
      At line 77 in file ..\Lib_MCU\src\startup_LPC11xx.s
      At line 78 in file ..\Lib_MCU\src\startup_LPC11xx.s
      At line 79 in file ..\Lib_MCU\src\startup_LPC11xx.s
      At line 80 in file ..\Lib_MCU\src\startup_LPC11xx.s
      At line 81 in file ..\Lib_MCU\src\startup_LPC11xx.s
      At line 82 in file ..\Lib_MCU\src\startup_LPC11xx.s
      At line 83 in file ..\Lib_MCU\src\startup_LPC11xx.s
      At line 84 in file ..\Lib_MCU\src\startup_LPC11xx.s
      At line 85 in file ..\Lib_MCU\src\startup_LPC11xx.s
      At line 86 in file ..\Lib_MCU\src\startup_LPC11xx.s
      At line 87 in file ..\Lib_MCU\src\startup_LPC11xx.s
      At line 88 in file ..\Lib_MCU\src\startup_LPC11xx.s
      At line 89 in file ..\Lib_MCU\src\startup_LPC11xx.s
      At line 176 in file ..\Lib_MCU\src\startup_LPC11xx.s

WDT_IRQHandler 00000016

Symbol: WDT_IRQHandler
   Definitions
      At line 212 in file ..\Lib_MCU\src\startup_LPC11xx.s
   Uses
      At line 102 in file ..\Lib_MCU\src\startup_LPC11xx.s
      At line 190 in file ..\Lib_MCU\src\startup_LPC11xx.s



ARM Macro Assembler    Page 6 Alphabetic symbol ordering
Relocatable symbols


32 symbols



ARM Macro Assembler    Page 1 Alphabetic symbol ordering
Absolute symbols

Heap_Size 00000000

Symbol: Heap_Size
   Definitions
      At line 38 in file ..\Lib_MCU\src\startup_LPC11xx.s
   Uses
      At line 42 in file ..\Lib_MCU\src\startup_LPC11xx.s
Comment: Heap_Size used once
Stack_Size 00000100

Symbol: Stack_Size
   Definitions
      At line 27 in file ..\Lib_MCU\src\startup_LPC11xx.s
   Uses
      At line 30 in file ..\Lib_MCU\src\startup_LPC11xx.s
Comment: Stack_Size used once
2 symbols



ARM Macro Assembler    Page 1 Alphabetic symbol ordering
External symbols

OS_CPU_PendSVHandler 00000000

Symbol: OS_CPU_PendSVHandler
   Definitions
      At line 70 in file ..\Lib_MCU\src\startup_LPC11xx.s
   Uses
      At line 71 in file ..\Lib_MCU\src\startup_LPC11xx.s
Comment: OS_CPU_PendSVHandler used once
OS_CPU_SysTickHandler 00000000

Symbol: OS_CPU_SysTickHandler
   Definitions
      At line 73 in file ..\Lib_MCU\src\startup_LPC11xx.s
   Uses
      At line 74 in file ..\Lib_MCU\src\startup_LPC11xx.s
Comment: OS_CPU_SysTickHandler used once
__main 00000000

Symbol: __main
   Definitions
      At line 124 in file ..\Lib_MCU\src\startup_LPC11xx.s
   Uses
      At line 125 in file ..\Lib_MCU\src\startup_LPC11xx.s
Comment: __main used once
3 symbols
377 symbols in table
